{
  "_format": "hh-sol-artifact-1",
  "contractName": "Blog",
  "sourceName": "contracts/Signature.sol",
  "abi": [
    {
      "inputs": [
        {
          "internalType": "string",
          "name": "name",
          "type": "string"
        },
        {
          "internalType": "string",
          "name": "version",
          "type": "string"
        }
      ],
      "stateMutability": "nonpayable",
      "type": "constructor"
    },
    {
      "anonymous": false,
      "inputs": [
        {
          "indexed": true,
          "internalType": "address",
          "name": "previousOwner",
          "type": "address"
        },
        {
          "indexed": true,
          "internalType": "address",
          "name": "newOwner",
          "type": "address"
        }
      ],
      "name": "OwnershipTransferred",
      "type": "event"
    },
    {
      "inputs": [],
      "name": "owner",
      "outputs": [
        {
          "internalType": "address",
          "name": "",
          "type": "address"
        }
      ],
      "stateMutability": "view",
      "type": "function"
    },
    {
      "inputs": [],
      "name": "renounceOwnership",
      "outputs": [],
      "stateMutability": "nonpayable",
      "type": "function"
    },
    {
      "inputs": [
        {
          "internalType": "address",
          "name": "newOwner",
          "type": "address"
        }
      ],
      "name": "transferOwnership",
      "outputs": [],
      "stateMutability": "nonpayable",
      "type": "function"
    },
    {
      "inputs": [
        {
          "components": [
            {
              "internalType": "address",
              "name": "seller",
              "type": "address"
            }
          ],
          "internalType": "struct Blog.SwapMetadata",
          "name": "swap",
          "type": "tuple"
        },
        {
          "internalType": "bytes",
          "name": "signature",
          "type": "bytes"
        }
      ],
      "name": "verifySignature",
      "outputs": [
        {
          "internalType": "address",
          "name": "",
          "type": "address"
        }
      ],
      "stateMutability": "view",
      "type": "function"
    },
    {
      "inputs": [
        {
          "components": [
            {
              "internalType": "address",
              "name": "seller",
              "type": "address"
            }
          ],
          "internalType": "struct Blog.SwapMetadata",
          "name": "swap",
          "type": "tuple"
        },
        {
          "internalType": "bytes32",
          "name": "r",
          "type": "bytes32"
        },
        {
          "internalType": "bytes32",
          "name": "s",
          "type": "bytes32"
        },
        {
          "internalType": "uint8",
          "name": "v",
          "type": "uint8"
        }
      ],
      "name": "verifySignature2",
      "outputs": [
        {
          "internalType": "address",
          "name": "",
          "type": "address"
        }
      ],
      "stateMutability": "view",
      "type": "function"
    }
  ],
  "bytecode": "0x6101406040523480156200001257600080fd5b5060405162001b2338038062001b23833981810160405281019062000038919062000495565b81816200005a6200004e6200012b60201b60201c565b6200013360201b60201c565b60008280519060200120905060008280519060200120905060007f8b73c3c69bb8fe3d512ecc4cf759cc79239f7b179b0ffacaa9a75d522b39400f90508260e081815250508161010081815250504660a08181525050620000c3818484620001f760201b60201c565b608081815250503073ffffffffffffffffffffffffffffffffffffffff1660c08173ffffffffffffffffffffffffffffffffffffffff168152505080610120818152505050505050506200012382826200023360201b620003e71760201c565b50506200068a565b600033905090565b60008060009054906101000a900473ffffffffffffffffffffffffffffffffffffffff169050816000806101000a81548173ffffffffffffffffffffffffffffffffffffffff021916908373ffffffffffffffffffffffffffffffffffffffff1602179055508173ffffffffffffffffffffffffffffffffffffffff168173ffffffffffffffffffffffffffffffffffffffff167f8be0079c531659141344cd1fd0a4f28419497f9722a3daafe3b4186f6b6457e060405160405180910390a35050565b600083838346306040516020016200021495949392919062000595565b6040516020818303038152906040528051906020012090509392505050565b620002d582826040516024016200024c9291906200064f565b6040516020818303038152906040527f4b5c4277000000000000000000000000000000000000000000000000000000007bffffffffffffffffffffffffffffffffffffffffffffffffffffffff19166020820180517bffffffffffffffffffffffffffffffffffffffffffffffffffffffff8381831617835250505050620002d960201b60201c565b5050565b60008151905060006a636f6e736f6c652e6c6f679050602083016000808483855afa5050505050565b6000604051905090565b600080fd5b600080fd5b600080fd5b600080fd5b6000601f19601f8301169050919050565b7f4e487b7100000000000000000000000000000000000000000000000000000000600052604160045260246000fd5b6200036b8262000320565b810181811067ffffffffffffffff821117156200038d576200038c62000331565b5b80604052505050565b6000620003a262000302565b9050620003b0828262000360565b919050565b600067ffffffffffffffff821115620003d357620003d262000331565b5b620003de8262000320565b9050602081019050919050565b60005b838110156200040b578082015181840152602081019050620003ee565b60008484015250505050565b60006200042e6200042884620003b5565b62000396565b9050828152602081018484840111156200044d576200044c6200031b565b5b6200045a848285620003eb565b509392505050565b600082601f8301126200047a576200047962000316565b5b81516200048c84826020860162000417565b91505092915050565b60008060408385031215620004af57620004ae6200030c565b5b600083015167ffffffffffffffff811115620004d057620004cf62000311565b5b620004de8582860162000462565b925050602083015167ffffffffffffffff81111562000502576200050162000311565b5b620005108582860162000462565b9150509250929050565b6000819050919050565b6200052f816200051a565b82525050565b6000819050919050565b6200054a8162000535565b82525050565b600073ffffffffffffffffffffffffffffffffffffffff82169050919050565b60006200057d8262000550565b9050919050565b6200058f8162000570565b82525050565b600060a082019050620005ac600083018862000524565b620005bb602083018762000524565b620005ca604083018662000524565b620005d960608301856200053f565b620005e8608083018462000584565b9695505050505050565b600081519050919050565b600082825260208201905092915050565b60006200061b82620005f2565b620006278185620005fd565b935062000639818560208601620003eb565b620006448162000320565b840191505092915050565b600060408201905081810360008301526200066b81856200060e565b905081810360208301526200068181846200060e565b90509392505050565b60805160a05160c05160e0516101005161012051611449620006da60003960006106e501526000610727015260006107060152600061063b01526000610691015260006106ba01526114496000f3fe608060405234801561001057600080fd5b50600436106100575760003560e01c8063715018a61461005c5780638da5cb5b14610066578063964366f114610084578063a8019aca146100b4578063f2fde38b146100e4575b600080fd5b610064610100565b005b61006e610114565b60405161007b9190610b28565b60405180910390f35b61009e60048036038101906100999190610bea565b61013d565b6040516100ab9190610b28565b60405180910390f35b6100ce60048036038101906100c99190610e04565b6102f1565b6040516100db9190610b28565b60405180910390f35b6100fe60048036038101906100f99190610e60565b610364565b005b610108610483565b6101126000610501565b565b60008060009054906101000a900473ffffffffffffffffffffffffffffffffffffffff16905090565b6000807f8b73c3c69bb8fe3d512ecc4cf759cc79239f7b179b0ffacaa9a75d522b39400f6040518060400160405280600481526020017f426c6f6700000000000000000000000000000000000000000000000000000000815250805190602001206040518060400160405280600181526020017f31000000000000000000000000000000000000000000000000000000000000008152508051906020012046306040516020016101f1959493929190610eb5565b60405160208183030381529060405280519060200120905060007f91a8aa923774d819e44ca77878622ffeb27700c9acb284a444a522041b644b4887600001602081019061023f9190610e60565b604051602001610250929190610f08565b60405160208183030381529060405280519060200120905060006001838360405160200161027f929190610fa9565b60405160208183030381529060405280519060200120868989604051600081526020016040526040516102b59493929190610fef565b6020604051602081039080840390855afa1580156102d7573d6000803e3d6000fd5b505050602060405103519050809350505050949350505050565b6000806103497f91a8aa923774d819e44ca77878622ffeb27700c9acb284a444a522041b644b48856000015160405160200161032e929190610f08565b604051602081830303815290604052805190602001206105c5565b9050600061035782856105df565b9050809250505092915050565b61036c610483565b600073ffffffffffffffffffffffffffffffffffffffff168173ffffffffffffffffffffffffffffffffffffffff16036103db576040517f08c379a00000000000000000000000000000000000000000000000000000000081526004016103d2906110b7565b60405180910390fd5b6103e481610501565b50565b61047f82826040516024016103fd929190611145565b6040516020818303038152906040527f4b5c4277000000000000000000000000000000000000000000000000000000007bffffffffffffffffffffffffffffffffffffffffffffffffffffffff19166020820180517bffffffffffffffffffffffffffffffffffffffffffffffffffffffff8381831617835250505050610606565b5050565b61048b61062f565b73ffffffffffffffffffffffffffffffffffffffff166104a9610114565b73ffffffffffffffffffffffffffffffffffffffff16146104ff576040517f08c379a00000000000000000000000000000000000000000000000000000000081526004016104f6906111c8565b60405180910390fd5b565b60008060009054906101000a900473ffffffffffffffffffffffffffffffffffffffff169050816000806101000a81548173ffffffffffffffffffffffffffffffffffffffff021916908373ffffffffffffffffffffffffffffffffffffffff1602179055508173ffffffffffffffffffffffffffffffffffffffff168173ffffffffffffffffffffffffffffffffffffffff167f8be0079c531659141344cd1fd0a4f28419497f9722a3daafe3b4186f6b6457e060405160405180910390a35050565b60006105d86105d2610637565b83610751565b9050919050565b60008060006105ee8585610784565b915091506105fb816107d5565b819250505092915050565b60008151905060006a636f6e736f6c652e6c6f679050602083016000808483855afa5050505050565b600033905090565b60007f000000000000000000000000000000000000000000000000000000000000000073ffffffffffffffffffffffffffffffffffffffff163073ffffffffffffffffffffffffffffffffffffffff161480156106b357507f000000000000000000000000000000000000000000000000000000000000000046145b156106e0577f0000000000000000000000000000000000000000000000000000000000000000905061074e565b61074b7f00000000000000000000000000000000000000000000000000000000000000007f00000000000000000000000000000000000000000000000000000000000000007f00000000000000000000000000000000000000000000000000000000000000006109a1565b90505b90565b60008282604051602001610766929190610fa9565b60405160208183030381529060405280519060200120905092915050565b60008060418351036107c55760008060006020860151925060408601519150606086015160001a90506107b9878285856109db565b945094505050506107ce565b60006002915091505b9250929050565b600060048111156107e9576107e86111e8565b5b8160048111156107fc576107fb6111e8565b5b031561099e5760016004811115610816576108156111e8565b5b816004811115610829576108286111e8565b5b03610869576040517f08c379a000000000000000000000000000000000000000000000000000000000815260040161086090611263565b60405180910390fd5b6002600481111561087d5761087c6111e8565b5b8160048111156108905761088f6111e8565b5b036108d0576040517f08c379a00000000000000000000000000000000000000000000000000000000081526004016108c7906112cf565b60405180910390fd5b600360048111156108e4576108e36111e8565b5b8160048111156108f7576108f66111e8565b5b03610937576040517f08c379a000000000000000000000000000000000000000000000000000000000815260040161092e90611361565b60405180910390fd5b60048081111561094a576109496111e8565b5b81600481111561095d5761095c6111e8565b5b0361099d576040517f08c379a0000000000000000000000000000000000000000000000000000000008152600401610994906113f3565b60405180910390fd5b5b50565b600083838346306040516020016109bc959493929190610eb5565b6040516020818303038152906040528051906020012090509392505050565b6000807f7fffffffffffffffffffffffffffffff5d576e7357a4501ddfe92f46681b20a08360001c1115610a16576000600391509150610ade565b601b8560ff1614158015610a2e5750601c8560ff1614155b15610a40576000600491509150610ade565b600060018787878760405160008152602001604052604051610a659493929190610fef565b6020604051602081039080840390855afa158015610a87573d6000803e3d6000fd5b505050602060405103519050600073ffffffffffffffffffffffffffffffffffffffff168173ffffffffffffffffffffffffffffffffffffffff1603610ad557600060019250925050610ade565b80600092509250505b94509492505050565b600073ffffffffffffffffffffffffffffffffffffffff82169050919050565b6000610b1282610ae7565b9050919050565b610b2281610b07565b82525050565b6000602082019050610b3d6000830184610b19565b92915050565b6000604051905090565b600080fd5b600080fd5b600080fd5b600060208284031215610b7257610b71610b57565b5b81905092915050565b6000819050919050565b610b8e81610b7b565b8114610b9957600080fd5b50565b600081359050610bab81610b85565b92915050565b600060ff82169050919050565b610bc781610bb1565b8114610bd257600080fd5b50565b600081359050610be481610bbe565b92915050565b60008060008060808587031215610c0457610c03610b4d565b5b6000610c1287828801610b5c565b9450506020610c2387828801610b9c565b9350506040610c3487828801610b9c565b9250506060610c4587828801610bd5565b91505092959194509250565b600080fd5b6000601f19601f8301169050919050565b7f4e487b7100000000000000000000000000000000000000000000000000000000600052604160045260246000fd5b610c9f82610c56565b810181811067ffffffffffffffff82111715610cbe57610cbd610c67565b5b80604052505050565b6000610cd1610b43565b9050610cdd8282610c96565b919050565b610ceb81610b07565b8114610cf657600080fd5b50565b600081359050610d0881610ce2565b92915050565b600060208284031215610d2457610d23610c51565b5b610d2e6020610cc7565b90506000610d3e84828501610cf9565b60008301525092915050565b600080fd5b600080fd5b600067ffffffffffffffff821115610d6f57610d6e610c67565b5b610d7882610c56565b9050602081019050919050565b82818337600083830152505050565b6000610da7610da284610d54565b610cc7565b905082815260208101848484011115610dc357610dc2610d4f565b5b610dce848285610d85565b509392505050565b600082601f830112610deb57610dea610d4a565b5b8135610dfb848260208601610d94565b91505092915050565b60008060408385031215610e1b57610e1a610b4d565b5b6000610e2985828601610d0e565b925050602083013567ffffffffffffffff811115610e4a57610e49610b52565b5b610e5685828601610dd6565b9150509250929050565b600060208284031215610e7657610e75610b4d565b5b6000610e8484828501610cf9565b91505092915050565b610e9681610b7b565b82525050565b6000819050919050565b610eaf81610e9c565b82525050565b600060a082019050610eca6000830188610e8d565b610ed76020830187610e8d565b610ee46040830186610e8d565b610ef16060830185610ea6565b610efe6080830184610b19565b9695505050505050565b6000604082019050610f1d6000830185610e8d565b610f2a6020830184610b19565b9392505050565b600081905092915050565b7f1901000000000000000000000000000000000000000000000000000000000000600082015250565b6000610f72600283610f31565b9150610f7d82610f3c565b600282019050919050565b6000819050919050565b610fa3610f9e82610b7b565b610f88565b82525050565b6000610fb482610f65565b9150610fc08285610f92565b602082019150610fd08284610f92565b6020820191508190509392505050565b610fe981610bb1565b82525050565b60006080820190506110046000830187610e8d565b6110116020830186610fe0565b61101e6040830185610e8d565b61102b6060830184610e8d565b95945050505050565b600082825260208201905092915050565b7f4f776e61626c653a206e6577206f776e657220697320746865207a65726f206160008201527f6464726573730000000000000000000000000000000000000000000000000000602082015250565b60006110a1602683611034565b91506110ac82611045565b604082019050919050565b600060208201905081810360008301526110d081611094565b9050919050565b600081519050919050565b60005b838110156111005780820151818401526020810190506110e5565b60008484015250505050565b6000611117826110d7565b6111218185611034565b93506111318185602086016110e2565b61113a81610c56565b840191505092915050565b6000604082019050818103600083015261115f818561110c565b90508181036020830152611173818461110c565b90509392505050565b7f4f776e61626c653a2063616c6c6572206973206e6f7420746865206f776e6572600082015250565b60006111b2602083611034565b91506111bd8261117c565b602082019050919050565b600060208201905081810360008301526111e1816111a5565b9050919050565b7f4e487b7100000000000000000000000000000000000000000000000000000000600052602160045260246000fd5b7f45434453413a20696e76616c6964207369676e61747572650000000000000000600082015250565b600061124d601883611034565b915061125882611217565b602082019050919050565b6000602082019050818103600083015261127c81611240565b9050919050565b7f45434453413a20696e76616c6964207369676e6174757265206c656e67746800600082015250565b60006112b9601f83611034565b91506112c482611283565b602082019050919050565b600060208201905081810360008301526112e8816112ac565b9050919050565b7f45434453413a20696e76616c6964207369676e6174757265202773272076616c60008201527f7565000000000000000000000000000000000000000000000000000000000000602082015250565b600061134b602283611034565b9150611356826112ef565b604082019050919050565b6000602082019050818103600083015261137a8161133e565b9050919050565b7f45434453413a20696e76616c6964207369676e6174757265202776272076616c60008201527f7565000000000000000000000000000000000000000000000000000000000000602082015250565b60006113dd602283611034565b91506113e882611381565b604082019050919050565b6000602082019050818103600083015261140c816113d0565b905091905056fea2646970667358221220a14b5e7ff07b002055cf6747256d83e9b612a2257d3fa1344634b088492959c664736f6c63430008110033",
  "linkReferences": {},
  "deployedLinkReferences": {}
}