{
  "_format": "hh-sol-artifact-1",
  "contractName": "Blog",
  "sourceName": "contracts/Blog.sol",
  "abi": [
    {
      "inputs": [
        {
          "internalType": "string",
          "name": "name",
          "type": "string"
        },
        {
          "internalType": "string",
          "name": "version",
          "type": "string"
        }
      ],
      "stateMutability": "nonpayable",
      "type": "constructor"
    },
    {
      "anonymous": false,
      "inputs": [
        {
          "indexed": true,
          "internalType": "address",
          "name": "previousOwner",
          "type": "address"
        },
        {
          "indexed": true,
          "internalType": "address",
          "name": "newOwner",
          "type": "address"
        }
      ],
      "name": "OwnershipTransferred",
      "type": "event"
    },
    {
      "inputs": [],
      "name": "WHITELIST_TYPEHASH",
      "outputs": [
        {
          "internalType": "bytes32",
          "name": "",
          "type": "bytes32"
        }
      ],
      "stateMutability": "view",
      "type": "function"
    },
    {
      "inputs": [
        {
          "internalType": "address",
          "name": "_buyer",
          "type": "address"
        },
        {
          "internalType": "uint256",
          "name": "_signedQty",
          "type": "uint256"
        },
        {
          "internalType": "uint256",
          "name": "_nonce",
          "type": "uint256"
        },
        {
          "internalType": "bytes",
          "name": "_signature",
          "type": "bytes"
        }
      ],
      "name": "getSigner",
      "outputs": [
        {
          "internalType": "address",
          "name": "",
          "type": "address"
        }
      ],
      "stateMutability": "view",
      "type": "function"
    },
    {
      "inputs": [],
      "name": "hello",
      "outputs": [
        {
          "internalType": "string",
          "name": "",
          "type": "string"
        }
      ],
      "stateMutability": "pure",
      "type": "function"
    },
    {
      "inputs": [],
      "name": "owner",
      "outputs": [
        {
          "internalType": "address",
          "name": "",
          "type": "address"
        }
      ],
      "stateMutability": "view",
      "type": "function"
    },
    {
      "inputs": [],
      "name": "renounceOwnership",
      "outputs": [],
      "stateMutability": "nonpayable",
      "type": "function"
    },
    {
      "inputs": [
        {
          "internalType": "address",
          "name": "_address",
          "type": "address"
        }
      ],
      "name": "setWhitelistSigner",
      "outputs": [],
      "stateMutability": "nonpayable",
      "type": "function"
    },
    {
      "inputs": [
        {
          "internalType": "address",
          "name": "newOwner",
          "type": "address"
        }
      ],
      "name": "transferOwnership",
      "outputs": [],
      "stateMutability": "nonpayable",
      "type": "function"
    },
    {
      "inputs": [],
      "name": "whitelistSigner",
      "outputs": [
        {
          "internalType": "address",
          "name": "",
          "type": "address"
        }
      ],
      "stateMutability": "view",
      "type": "function"
    }
  ],
  "bytecode": "0x6101406040523480156200001257600080fd5b5060405162001b7238038062001b7283398181016040528101906200003891906200054a565b81816200005a6200004e6200014060201b60201c565b6200014860201b60201c565b60008280519060200120905060008280519060200120905060007f8b73c3c69bb8fe3d512ecc4cf759cc79239f7b179b0ffacaa9a75d522b39400f90508260e081815250508161010081815250504660a08181525050620000c38184846200020c60201b60201c565b608081815250503073ffffffffffffffffffffffffffffffffffffffff1660c08173ffffffffffffffffffffffffffffffffffffffff1681525050806101208181525050505050505062000122466200024860201b620003791760201c565b6200013882620002eb60201b620004121760201c565b505062000745565b600033905090565b60008060009054906101000a900473ffffffffffffffffffffffffffffffffffffffff169050816000806101000a81548173ffffffffffffffffffffffffffffffffffffffff021916908373ffffffffffffffffffffffffffffffffffffffff1602179055508173ffffffffffffffffffffffffffffffffffffffff168173ffffffffffffffffffffffffffffffffffffffff167f8be0079c531659141344cd1fd0a4f28419497f9722a3daafe3b4186f6b6457e060405160405180910390a35050565b60008383834630604051602001620002299594939291906200064a565b6040516020818303038152906040528051906020012090509392505050565b620002e8816040516024016200025f9190620006a7565b6040516020818303038152906040527ff82c50f1000000000000000000000000000000000000000000000000000000007bffffffffffffffffffffffffffffffffffffffffffffffffffffffff19166020820180517bffffffffffffffffffffffffffffffffffffffffffffffffffffffff83818316178352505050506200038e60201b60201c565b50565b6200038b8160405160240162000302919062000721565b6040516020818303038152906040527f41304fac000000000000000000000000000000000000000000000000000000007bffffffffffffffffffffffffffffffffffffffffffffffffffffffff19166020820180517bffffffffffffffffffffffffffffffffffffffffffffffffffffffff83818316178352505050506200038e60201b60201c565b50565b60008151905060006a636f6e736f6c652e6c6f679050602083016000808483855afa5050505050565b6000604051905090565b600080fd5b600080fd5b600080fd5b600080fd5b6000601f19601f8301169050919050565b7f4e487b7100000000000000000000000000000000000000000000000000000000600052604160045260246000fd5b6200042082620003d5565b810181811067ffffffffffffffff82111715620004425762000441620003e6565b5b80604052505050565b600062000457620003b7565b905062000465828262000415565b919050565b600067ffffffffffffffff821115620004885762000487620003e6565b5b6200049382620003d5565b9050602081019050919050565b60005b83811015620004c0578082015181840152602081019050620004a3565b60008484015250505050565b6000620004e3620004dd846200046a565b6200044b565b905082815260208101848484011115620005025762000501620003d0565b5b6200050f848285620004a0565b509392505050565b600082601f8301126200052f576200052e620003cb565b5b815162000541848260208601620004cc565b91505092915050565b60008060408385031215620005645762000563620003c1565b5b600083015167ffffffffffffffff811115620005855762000584620003c6565b5b620005938582860162000517565b925050602083015167ffffffffffffffff811115620005b757620005b6620003c6565b5b620005c58582860162000517565b9150509250929050565b6000819050919050565b620005e481620005cf565b82525050565b6000819050919050565b620005ff81620005ea565b82525050565b600073ffffffffffffffffffffffffffffffffffffffff82169050919050565b6000620006328262000605565b9050919050565b620006448162000625565b82525050565b600060a082019050620006616000830188620005d9565b620006706020830187620005d9565b6200067f6040830186620005d9565b6200068e6060830185620005f4565b6200069d608083018462000639565b9695505050505050565b6000602082019050620006be6000830184620005f4565b92915050565b600081519050919050565b600082825260208201905092915050565b6000620006ed82620006c4565b620006f98185620006cf565b93506200070b818560208601620004a0565b6200071681620003d5565b840191505092915050565b600060208201905081810360008301526200073d8184620006e0565b905092915050565b60805160a05160c05160e05161010051610120516113dd62000795600039600061070d0152600061074f0152600061072e01526000610663015260006106b9015260006106e201526113dd6000f3fe608060405234801561001057600080fd5b50600436106100885760003560e01c8063cd5d49741161005b578063cd5d4974146100f1578063d338143814610121578063ef81b4d41461013d578063f2fde38b1461015b57610088565b806319ff1d211461008d5780636301dccf146100ab578063715018a6146100c95780638da5cb5b146100d3575b600080fd5b610095610177565b6040516100a29190610b9f565b60405180910390f35b6100b36101b4565b6040516100c09190610bda565b60405180910390f35b6100d16101d8565b005b6100db6101ec565b6040516100e89190610c36565b60405180910390f35b61010b60048036038101906101069190610dfc565b610215565b6040516101189190610c36565b60405180910390f35b61013b60048036038101906101369190610e7f565b610284565b005b6101456102d0565b6040516101529190610c36565b60405180910390f35b61017560048036038101906101709190610e7f565b6102f6565b005b60606040518060400160405280600a81526020017f68656c6c6f576f726c6400000000000000000000000000000000000000000000815250905090565b7f940a52669dc9fded2f965dea80d65bf40e8f29bcf1a4a3258a2c387da1b99cd981565b6101e06104ab565b6101ea6000610529565b565b60008060009054906101000a900473ffffffffffffffffffffffffffffffffffffffff16905090565b60008061026d7f940a52669dc9fded2f965dea80d65bf40e8f29bcf1a4a3258a2c387da1b99cd98787876040516020016102529493929190610ebb565b604051602081830303815290604052805190602001206105ed565b90506102798184610607565b915050949350505050565b61028c6104ab565b80600160006101000a81548173ffffffffffffffffffffffffffffffffffffffff021916908373ffffffffffffffffffffffffffffffffffffffff16021790555050565b600160009054906101000a900473ffffffffffffffffffffffffffffffffffffffff1681565b6102fe6104ab565b600073ffffffffffffffffffffffffffffffffffffffff168173ffffffffffffffffffffffffffffffffffffffff160361036d576040517f08c379a000000000000000000000000000000000000000000000000000000000815260040161036490610f72565b60405180910390fd5b61037681610529565b50565b61040f8160405160240161038d9190610f92565b6040516020818303038152906040527ff82c50f1000000000000000000000000000000000000000000000000000000007bffffffffffffffffffffffffffffffffffffffffffffffffffffffff19166020820180517bffffffffffffffffffffffffffffffffffffffffffffffffffffffff838183161783525050505061062e565b50565b6104a8816040516024016104269190610b9f565b6040516020818303038152906040527f41304fac000000000000000000000000000000000000000000000000000000007bffffffffffffffffffffffffffffffffffffffffffffffffffffffff19166020820180517bffffffffffffffffffffffffffffffffffffffffffffffffffffffff838183161783525050505061062e565b50565b6104b3610657565b73ffffffffffffffffffffffffffffffffffffffff166104d16101ec565b73ffffffffffffffffffffffffffffffffffffffff1614610527576040517f08c379a000000000000000000000000000000000000000000000000000000000815260040161051e90610ff9565b60405180910390fd5b565b60008060009054906101000a900473ffffffffffffffffffffffffffffffffffffffff169050816000806101000a81548173ffffffffffffffffffffffffffffffffffffffff021916908373ffffffffffffffffffffffffffffffffffffffff1602179055508173ffffffffffffffffffffffffffffffffffffffff168173ffffffffffffffffffffffffffffffffffffffff167f8be0079c531659141344cd1fd0a4f28419497f9722a3daafe3b4186f6b6457e060405160405180910390a35050565b60006106006105fa61065f565b83610779565b9050919050565b600080600061061685856107ac565b91509150610623816107fd565b819250505092915050565b60008151905060006a636f6e736f6c652e6c6f679050602083016000808483855afa5050505050565b600033905090565b60007f000000000000000000000000000000000000000000000000000000000000000073ffffffffffffffffffffffffffffffffffffffff163073ffffffffffffffffffffffffffffffffffffffff161480156106db57507f000000000000000000000000000000000000000000000000000000000000000046145b15610708577f00000000000000000000000000000000000000000000000000000000000000009050610776565b6107737f00000000000000000000000000000000000000000000000000000000000000007f00000000000000000000000000000000000000000000000000000000000000007f00000000000000000000000000000000000000000000000000000000000000006109c9565b90505b90565b6000828260405160200161078e929190611091565b60405160208183030381529060405280519060200120905092915050565b60008060418351036107ed5760008060006020860151925060408601519150606086015160001a90506107e187828585610a03565b945094505050506107f6565b60006002915091505b9250929050565b60006004811115610811576108106110c8565b5b816004811115610824576108236110c8565b5b03156109c6576001600481111561083e5761083d6110c8565b5b816004811115610851576108506110c8565b5b03610891576040517f08c379a000000000000000000000000000000000000000000000000000000000815260040161088890611143565b60405180910390fd5b600260048111156108a5576108a46110c8565b5b8160048111156108b8576108b76110c8565b5b036108f8576040517f08c379a00000000000000000000000000000000000000000000000000000000081526004016108ef906111af565b60405180910390fd5b6003600481111561090c5761090b6110c8565b5b81600481111561091f5761091e6110c8565b5b0361095f576040517f08c379a000000000000000000000000000000000000000000000000000000000815260040161095690611241565b60405180910390fd5b600480811115610972576109716110c8565b5b816004811115610985576109846110c8565b5b036109c5576040517f08c379a00000000000000000000000000000000000000000000000000000000081526004016109bc906112d3565b60405180910390fd5b5b50565b600083838346306040516020016109e49594939291906112f3565b6040516020818303038152906040528051906020012090509392505050565b6000807f7fffffffffffffffffffffffffffffff5d576e7357a4501ddfe92f46681b20a08360001c1115610a3e576000600391509150610b06565b601b8560ff1614158015610a565750601c8560ff1614155b15610a68576000600491509150610b06565b600060018787878760405160008152602001604052604051610a8d9493929190611362565b6020604051602081039080840390855afa158015610aaf573d6000803e3d6000fd5b505050602060405103519050600073ffffffffffffffffffffffffffffffffffffffff168173ffffffffffffffffffffffffffffffffffffffff1603610afd57600060019250925050610b06565b80600092509250505b94509492505050565b600081519050919050565b600082825260208201905092915050565b60005b83811015610b49578082015181840152602081019050610b2e565b60008484015250505050565b6000601f19601f8301169050919050565b6000610b7182610b0f565b610b7b8185610b1a565b9350610b8b818560208601610b2b565b610b9481610b55565b840191505092915050565b60006020820190508181036000830152610bb98184610b66565b905092915050565b6000819050919050565b610bd481610bc1565b82525050565b6000602082019050610bef6000830184610bcb565b92915050565b600073ffffffffffffffffffffffffffffffffffffffff82169050919050565b6000610c2082610bf5565b9050919050565b610c3081610c15565b82525050565b6000602082019050610c4b6000830184610c27565b92915050565b6000604051905090565b600080fd5b600080fd5b610c6e81610c15565b8114610c7957600080fd5b50565b600081359050610c8b81610c65565b92915050565b6000819050919050565b610ca481610c91565b8114610caf57600080fd5b50565b600081359050610cc181610c9b565b92915050565b600080fd5b600080fd5b7f4e487b7100000000000000000000000000000000000000000000000000000000600052604160045260246000fd5b610d0982610b55565b810181811067ffffffffffffffff82111715610d2857610d27610cd1565b5b80604052505050565b6000610d3b610c51565b9050610d478282610d00565b919050565b600067ffffffffffffffff821115610d6757610d66610cd1565b5b610d7082610b55565b9050602081019050919050565b82818337600083830152505050565b6000610d9f610d9a84610d4c565b610d31565b905082815260208101848484011115610dbb57610dba610ccc565b5b610dc6848285610d7d565b509392505050565b600082601f830112610de357610de2610cc7565b5b8135610df3848260208601610d8c565b91505092915050565b60008060008060808587031215610e1657610e15610c5b565b5b6000610e2487828801610c7c565b9450506020610e3587828801610cb2565b9350506040610e4687828801610cb2565b925050606085013567ffffffffffffffff811115610e6757610e66610c60565b5b610e7387828801610dce565b91505092959194509250565b600060208284031215610e9557610e94610c5b565b5b6000610ea384828501610c7c565b91505092915050565b610eb581610c91565b82525050565b6000608082019050610ed06000830187610bcb565b610edd6020830186610c27565b610eea6040830185610eac565b610ef76060830184610eac565b95945050505050565b7f4f776e61626c653a206e6577206f776e657220697320746865207a65726f206160008201527f6464726573730000000000000000000000000000000000000000000000000000602082015250565b6000610f5c602683610b1a565b9150610f6782610f00565b604082019050919050565b60006020820190508181036000830152610f8b81610f4f565b9050919050565b6000602082019050610fa76000830184610eac565b92915050565b7f4f776e61626c653a2063616c6c6572206973206e6f7420746865206f776e6572600082015250565b6000610fe3602083610b1a565b9150610fee82610fad565b602082019050919050565b6000602082019050818103600083015261101281610fd6565b9050919050565b600081905092915050565b7f1901000000000000000000000000000000000000000000000000000000000000600082015250565b600061105a600283611019565b915061106582611024565b600282019050919050565b6000819050919050565b61108b61108682610bc1565b611070565b82525050565b600061109c8261104d565b91506110a8828561107a565b6020820191506110b8828461107a565b6020820191508190509392505050565b7f4e487b7100000000000000000000000000000000000000000000000000000000600052602160045260246000fd5b7f45434453413a20696e76616c6964207369676e61747572650000000000000000600082015250565b600061112d601883610b1a565b9150611138826110f7565b602082019050919050565b6000602082019050818103600083015261115c81611120565b9050919050565b7f45434453413a20696e76616c6964207369676e6174757265206c656e67746800600082015250565b6000611199601f83610b1a565b91506111a482611163565b602082019050919050565b600060208201905081810360008301526111c88161118c565b9050919050565b7f45434453413a20696e76616c6964207369676e6174757265202773272076616c60008201527f7565000000000000000000000000000000000000000000000000000000000000602082015250565b600061122b602283610b1a565b9150611236826111cf565b604082019050919050565b6000602082019050818103600083015261125a8161121e565b9050919050565b7f45434453413a20696e76616c6964207369676e6174757265202776272076616c60008201527f7565000000000000000000000000000000000000000000000000000000000000602082015250565b60006112bd602283610b1a565b91506112c882611261565b604082019050919050565b600060208201905081810360008301526112ec816112b0565b9050919050565b600060a0820190506113086000830188610bcb565b6113156020830187610bcb565b6113226040830186610bcb565b61132f6060830185610eac565b61133c6080830184610c27565b9695505050505050565b600060ff82169050919050565b61135c81611346565b82525050565b60006080820190506113776000830187610bcb565b6113846020830186611353565b6113916040830185610bcb565b61139e6060830184610bcb565b9594505050505056fea264697066735822122064d7b991b37632a3bf0b6d887cac57bbb384ebd6ceb151e3285a6bce56f7d76164736f6c63430008110033",
  "linkReferences": {},
  "deployedLinkReferences": {}
}